{
  "contractName": "Fund",
  "abi": [
    {
      "inputs": [
        {
          "internalType": "address payable",
          "name": "_owner",
          "type": "address"
        }
      ],
      "stateMutability": "payable",
      "type": "constructor",
      "payable": true
    },
    {
      "anonymous": false,
      "inputs": [
        {
          "indexed": false,
          "internalType": "address",
          "name": "sender",
          "type": "address"
        },
        {
          "indexed": false,
          "internalType": "uint256",
          "name": "amount",
          "type": "uint256"
        }
      ],
      "name": "Deposit",
      "type": "event"
    },
    {
      "anonymous": false,
      "inputs": [
        {
          "indexed": false,
          "internalType": "address",
          "name": "manager",
          "type": "address"
        }
      ],
      "name": "ManagerAdded",
      "type": "event"
    },
    {
      "anonymous": false,
      "inputs": [
        {
          "indexed": false,
          "internalType": "address",
          "name": "receiver",
          "type": "address"
        },
        {
          "indexed": false,
          "internalType": "uint256",
          "name": "amount",
          "type": "uint256"
        }
      ],
      "name": "Withdrawal",
      "type": "event"
    },
    {
      "inputs": [
        {
          "internalType": "uint256",
          "name": "",
          "type": "uint256"
        }
      ],
      "name": "managers",
      "outputs": [
        {
          "internalType": "address",
          "name": "",
          "type": "address"
        }
      ],
      "stateMutability": "view",
      "type": "function",
      "constant": true
    },
    {
      "inputs": [],
      "name": "owner",
      "outputs": [
        {
          "internalType": "address payable",
          "name": "",
          "type": "address"
        }
      ],
      "stateMutability": "view",
      "type": "function",
      "constant": true
    },
    {
      "stateMutability": "payable",
      "type": "receive",
      "payable": true
    },
    {
      "inputs": [
        {
          "internalType": "address",
          "name": "_manager",
          "type": "address"
        }
      ],
      "name": "addManagers",
      "outputs": [],
      "stateMutability": "nonpayable",
      "type": "function"
    },
    {
      "inputs": [
        {
          "internalType": "uint256",
          "name": "amount",
          "type": "uint256"
        }
      ],
      "name": "depositAmount",
      "outputs": [],
      "stateMutability": "payable",
      "type": "function",
      "payable": true
    },
    {
      "inputs": [],
      "name": "withdraw",
      "outputs": [],
      "stateMutability": "payable",
      "type": "function",
      "payable": true
    },
    {
      "inputs": [
        {
          "internalType": "address",
          "name": "_asset",
          "type": "address"
        }
      ],
      "name": "addTrackedAsset",
      "outputs": [],
      "stateMutability": "nonpayable",
      "type": "function"
    },
    {
      "inputs": [
        {
          "internalType": "address",
          "name": "_asset",
          "type": "address"
        }
      ],
      "name": "isTrackedAsset",
      "outputs": [
        {
          "internalType": "bool",
          "name": "isTrackedAsset_",
          "type": "bool"
        }
      ],
      "stateMutability": "view",
      "type": "function",
      "constant": true
    },
    {
      "inputs": [
        {
          "internalType": "address",
          "name": "_manager",
          "type": "address"
        }
      ],
      "name": "isFundManager",
      "outputs": [
        {
          "internalType": "bool",
          "name": "isFundManager_",
          "type": "bool"
        }
      ],
      "stateMutability": "view",
      "type": "function",
      "constant": true
    }
  ],
  "bytecode": "0x6080604052604051610b33380380610b3383398181016040528101906100259190610080565b806000806101000a81548173ffffffffffffffffffffffffffffffffffffffff021916908373ffffffffffffffffffffffffffffffffffffffff160217905550506100f2565b60008151905061007a816100db565b92915050565b60006020828403121561009257600080fd5b60006100a08482850161006b565b91505092915050565b60006100b4826100bb565b9050919050565b600073ffffffffffffffffffffffffffffffffffffffff82169050919050565b6100e4816100a9565b81146100ef57600080fd5b50565b610a32806101016000396000f3fe60806040526004361061007f5760003560e01c8063797ed3391161004e578063797ed3391461012457806387f8ab26146101615780638da5cb5b1461017d578063dd6d77a7146101a857610086565b80633ccfd60b1461008b5780633d39c260146100955780634ef0762e146100d25780636b44efd3146100fb57610086565b3661008657005b600080fd5b6100936101e5565b005b3480156100a157600080fd5b506100bc60048036038101906100b7919061073e565b6102ef565b6040516100c991906107f8565b60405180910390f35b3480156100de57600080fd5b506100f960048036038101906100f49190610715565b61032e565b005b34801561010757600080fd5b50610122600480360381019061011d9190610715565b610442565b005b34801561013057600080fd5b5061014b60048036038101906101469190610715565b6105d3565b6040516101589190610880565b60405180910390f35b61017b6004803603810190610176919061073e565b610629565b005b34801561018957600080fd5b50610192610671565b60405161019f9190610813565b60405180910390f35b3480156101b457600080fd5b506101cf60048036038101906101ca9190610715565b610695565b6040516101dc9190610880565b60405180910390f35b6101ee33610695565b61022d576040517f08c379a0000000000000000000000000000000000000000000000000000000008152600401610224906108bb565b60405180910390fd5b7f7fcf532c15f0a6db0bd6d0e038bea71d30d808c7d98cb3bf7268a95bf5081b6560008054906101000a900473ffffffffffffffffffffffffffffffffffffffff164760405161027e92919061082e565b60405180910390a160008054906101000a900473ffffffffffffffffffffffffffffffffffffffff1673ffffffffffffffffffffffffffffffffffffffff166108fc479081150290604051600060405180830381858888f193505050501580156102ec573d6000803e3d6000fd5b50565b600181815481106102ff57600080fd5b906000526020600020016000915054906101000a900473ffffffffffffffffffffffffffffffffffffffff1681565b61033733610695565b610376576040517f08c379a000000000000000000000000000000000000000000000000000000000815260040161036d906108bb565b60405180910390fd5b61037f816105d3565b61043f576001600460008373ffffffffffffffffffffffffffffffffffffffff1673ffffffffffffffffffffffffffffffffffffffff16815260200190815260200160002060006101000a81548160ff0219169083151502179055506002819080600181540180825580915050600190039060005260206000200160009091909190916101000a81548173ffffffffffffffffffffffffffffffffffffffff021916908373ffffffffffffffffffffffffffffffffffffffff1602179055505b50565b60008054906101000a900473ffffffffffffffffffffffffffffffffffffffff1673ffffffffffffffffffffffffffffffffffffffff163373ffffffffffffffffffffffffffffffffffffffff16146104d0576040517f08c379a00000000000000000000000000000000000000000000000000000000081526004016104c79061089b565b60405180910390fd5b6104d981610695565b6105d0576001600360008373ffffffffffffffffffffffffffffffffffffffff1673ffffffffffffffffffffffffffffffffffffffff16815260200190815260200160002060006101000a81548160ff0219169083151502179055506001819080600181540180825580915050600190039060005260206000200160009091909190916101000a81548173ffffffffffffffffffffffffffffffffffffffff021916908373ffffffffffffffffffffffffffffffffffffffff1602179055507f3b4a40cccf2058c593542587329dd385be4f0b588db5471fbd9598e56dd7093a816040516105c791906107f8565b60405180910390a15b50565b6000600460008373ffffffffffffffffffffffffffffffffffffffff1673ffffffffffffffffffffffffffffffffffffffff16815260200190815260200160002060009054906101000a900460ff169050919050565b7fe1fffcc4923d04b559f4d29a8bfc6cda04eb5b0d3c460751c2402c5c5cc9109c338260405161065a929190610857565b60405180910390a180341461066e57600080fd5b50565b60008054906101000a900473ffffffffffffffffffffffffffffffffffffffff1681565b6000600360008373ffffffffffffffffffffffffffffffffffffffff1673ffffffffffffffffffffffffffffffffffffffff16815260200190815260200160002060009054906101000a900460ff169050919050565b6000813590506106fa816109ce565b92915050565b60008135905061070f816109e5565b92915050565b60006020828403121561072757600080fd5b6000610735848285016106eb565b91505092915050565b60006020828403121561075057600080fd5b600061075e84828501610700565b91505092915050565b61077081610946565b82525050565b61077f816108fe565b82525050565b61078e816108ec565b82525050565b61079d81610910565b82525050565b60006107b0600b836108db565b91506107bb8261097c565b602082019050919050565b60006107d36016836108db565b91506107de826109a5565b602082019050919050565b6107f28161093c565b82525050565b600060208201905061080d6000830184610785565b92915050565b60006020820190506108286000830184610776565b92915050565b60006040820190506108436000830185610767565b61085060208301846107e9565b9392505050565b600060408201905061086c6000830185610785565b61087960208301846107e9565b9392505050565b60006020820190506108956000830184610794565b92915050565b600060208201905081810360008301526108b4816107a3565b9050919050565b600060208201905081810360008301526108d4816107c6565b9050919050565b600082825260208201905092915050565b60006108f78261091c565b9050919050565b60006109098261091c565b9050919050565b60008115159050919050565b600073ffffffffffffffffffffffffffffffffffffffff82169050919050565b6000819050919050565b600061095182610958565b9050919050565b60006109638261096a565b9050919050565b60006109758261091c565b9050919050565b7f4f776e6c79204f776e6572000000000000000000000000000000000000000000600082015250565b7f4d75737420626520612066756e64206d616e6167657200000000000000000000600082015250565b6109d7816108ec565b81146109e257600080fd5b50565b6109ee8161093c565b81146109f957600080fd5b5056fea26469706673582212205af238287f6ce094cf6a6624af224731f306014f293d2a8551c8a0c38e96e86764736f6c63430008040033",
  "immutableReferences": {},
  "source": "// SPDX-License-Identifier: MIT\npragma solidity 0.8.4;\n\nimport \"@openzeppelin/contracts/token/ERC20/ERC20.sol\";\n\ncontract Fund {\n       \n    address payable public owner;\n    address[] public managers;\n    address[] internal trackedAssets;\n    mapping(address => bool) internal addressIsManager;\n    mapping(address => bool) internal assetToIsTracked;\n    \n    event Deposit(address sender, uint amount);\n    event Withdrawal(address receiver, uint amount);\n    event ManagerAdded(address manager);\n    \n    constructor(\n        address payable _owner\n    ) payable {\n        owner = _owner;\n    }\n    \n    modifier onlyOwner() {\n        require(msg.sender == owner, \"Ownly Owner\");\n        _;\n    }\n\n    modifier onlyManagers() {\n        require(isFundManager(msg.sender), \"Must be a fund manager\");\n        _;\n    }\n\n    function addManagers(address _manager) public onlyOwner {\n        if (!isFundManager(_manager)) {\n            addressIsManager[_manager] = true;\n            managers.push(_manager);\n            emit ManagerAdded(_manager);\n        }\n    }\n    \n    function depositAmount(uint256 amount) payable public {\n        emit Deposit(msg.sender, amount);\n        require(msg.value == amount);\n     }\n    \n    function withdraw() payable public onlyManagers {\n        emit Withdrawal(owner, address(this).balance);\n        // require(remainingAmount == 0, \"Funding Round not complete\");\n        owner.transfer(address(this).balance);\n    }\n\n    function addTrackedAsset(address _asset) external onlyManagers {\n        if (!isTrackedAsset(_asset)) {\n            assetToIsTracked[_asset] = true;\n            trackedAssets.push(_asset);\n        }\n    }\n\n    receive() external payable {}\n\n    function isTrackedAsset(address _asset) public view returns (bool isTrackedAsset_) {\n        return assetToIsTracked[_asset];\n    }\n\n    function isFundManager(address _manager) public view returns (bool isFundManager_) {\n        return addressIsManager[_manager];\n    }\n}",
  "sourcePath": "/Users/donalmongey/Projects/defi/first-solidity-project/contracts/Fund.sol",
  "compiler": {
    "name": "solc",
    "version": "0.8.4+commit.c7e474f2.Emscripten.clang"
  },
  "schemaVersion": "3.4.1",
  "updatedAt": "2021-06-04T08:22:01.782Z",
  "networkType": "ethereum",
  "devdoc": {
    "kind": "dev",
    "methods": {},
    "version": 1
  },
  "userdoc": {
    "kind": "user",
    "methods": {},
    "version": 1
  }
}