{
  "contractName": "FundingRound",
  "abi": [
    {
      "inputs": [
        {
          "internalType": "address payable",
          "name": "_owner",
          "type": "address"
        },
        {
          "internalType": "address payable",
          "name": "_receiver",
          "type": "address"
        },
        {
          "internalType": "uint256",
          "name": "_price",
          "type": "uint256"
        }
      ],
      "stateMutability": "payable",
      "type": "constructor",
      "payable": true
    },
    {
      "anonymous": false,
      "inputs": [
        {
          "indexed": false,
          "internalType": "address",
          "name": "sender",
          "type": "address"
        },
        {
          "indexed": false,
          "internalType": "uint256",
          "name": "amount",
          "type": "uint256"
        }
      ],
      "name": "Deposit",
      "type": "event"
    },
    {
      "anonymous": false,
      "inputs": [
        {
          "indexed": false,
          "internalType": "address",
          "name": "receiver",
          "type": "address"
        },
        {
          "indexed": false,
          "internalType": "uint256",
          "name": "amount",
          "type": "uint256"
        }
      ],
      "name": "Withdrawal",
      "type": "event"
    },
    {
      "inputs": [],
      "name": "owner",
      "outputs": [
        {
          "internalType": "address payable",
          "name": "",
          "type": "address"
        }
      ],
      "stateMutability": "view",
      "type": "function",
      "constant": true
    },
    {
      "inputs": [],
      "name": "price",
      "outputs": [
        {
          "internalType": "uint256",
          "name": "",
          "type": "uint256"
        }
      ],
      "stateMutability": "view",
      "type": "function",
      "constant": true
    },
    {
      "inputs": [],
      "name": "receiver",
      "outputs": [
        {
          "internalType": "address payable",
          "name": "",
          "type": "address"
        }
      ],
      "stateMutability": "view",
      "type": "function",
      "constant": true
    },
    {
      "inputs": [],
      "name": "remainingAmount",
      "outputs": [
        {
          "internalType": "uint256",
          "name": "",
          "type": "uint256"
        }
      ],
      "stateMutability": "view",
      "type": "function",
      "constant": true
    },
    {
      "stateMutability": "payable",
      "type": "receive",
      "payable": true
    },
    {
      "inputs": [],
      "name": "deposit",
      "outputs": [],
      "stateMutability": "payable",
      "type": "function",
      "payable": true
    },
    {
      "inputs": [
        {
          "internalType": "uint256",
          "name": "amount",
          "type": "uint256"
        }
      ],
      "name": "depositAmount",
      "outputs": [],
      "stateMutability": "payable",
      "type": "function",
      "payable": true
    },
    {
      "inputs": [],
      "name": "withdraw",
      "outputs": [],
      "stateMutability": "payable",
      "type": "function",
      "payable": true
    }
  ],
  "bytecode": "0x608060405260405161074a38038061074a833981810160405281019061002591906100e6565b826000806101000a81548173ffffffffffffffffffffffffffffffffffffffff021916908373ffffffffffffffffffffffffffffffffffffffff16021790555081600160006101000a81548173ffffffffffffffffffffffffffffffffffffffff021916908373ffffffffffffffffffffffffffffffffffffffff160217905550806002819055508060038190555050505061019f565b6000815190506100cb81610171565b92915050565b6000815190506100e081610188565b92915050565b6000806000606084860312156100fb57600080fd5b6000610109868287016100bc565b935050602061011a868287016100bc565b925050604061012b868287016100d1565b9150509250925092565b600061014082610147565b9050919050565b600073ffffffffffffffffffffffffffffffffffffffff82169050919050565b6000819050919050565b61017a81610135565b811461018557600080fd5b50565b61019181610167565b811461019c57600080fd5b50565b61059c806101ae6000396000f3fe6080604052600436106100745760003560e01c8063a035b1fe1161004e578063a035b1fe146100d1578063a50a1fe6146100fc578063d0e30db014610127578063f7260d3e146101315761007b565b80633ccfd60b1461008057806387f8ab261461008a5780638da5cb5b146100a65761007b565b3661007b57005b600080fd5b61008861015c565b005b6100a4600480360381019061009f9190610361565b6102ac565b005b3480156100b257600080fd5b506100bb6102f4565b6040516100c891906103e9565b60405180910390f35b3480156100dd57600080fd5b506100e6610318565b6040516100f39190610476565b60405180910390f35b34801561010857600080fd5b5061011161031e565b60405161011e9190610476565b60405180910390f35b61012f610324565b005b34801561013d57600080fd5b50610146610326565b60405161015391906103e9565b60405180910390f35b60008054906101000a900473ffffffffffffffffffffffffffffffffffffffff1673ffffffffffffffffffffffffffffffffffffffff163373ffffffffffffffffffffffffffffffffffffffff16146101ea576040517f08c379a00000000000000000000000000000000000000000000000000000000081526004016101e190610456565b60405180910390fd5b7f7fcf532c15f0a6db0bd6d0e038bea71d30d808c7d98cb3bf7268a95bf5081b6560008054906101000a900473ffffffffffffffffffffffffffffffffffffffff164760405161023b929190610404565b60405180910390a160008054906101000a900473ffffffffffffffffffffffffffffffffffffffff1673ffffffffffffffffffffffffffffffffffffffff166108fc479081150290604051600060405180830381858888f193505050501580156102a9573d6000803e3d6000fd5b50565b7fe1fffcc4923d04b559f4d29a8bfc6cda04eb5b0d3c460751c2402c5c5cc9109c33826040516102dd92919061042d565b60405180910390a18034146102f157600080fd5b50565b60008054906101000a900473ffffffffffffffffffffffffffffffffffffffff1681565b60025481565b60035481565b565b600160009054906101000a900473ffffffffffffffffffffffffffffffffffffffff1681565b60008135905061035b8161054f565b92915050565b60006020828403121561037357600080fd5b60006103818482850161034c565b91505092915050565b610393816104f0565b82525050565b6103a2816104b4565b82525050565b6103b1816104a2565b82525050565b60006103c4600b83610491565b91506103cf82610526565b602082019050919050565b6103e3816104e6565b82525050565b60006020820190506103fe6000830184610399565b92915050565b6000604082019050610419600083018561038a565b61042660208301846103da565b9392505050565b600060408201905061044260008301856103a8565b61044f60208301846103da565b9392505050565b6000602082019050818103600083015261046f816103b7565b9050919050565b600060208201905061048b60008301846103da565b92915050565b600082825260208201905092915050565b60006104ad826104c6565b9050919050565b60006104bf826104c6565b9050919050565b600073ffffffffffffffffffffffffffffffffffffffff82169050919050565b6000819050919050565b60006104fb82610502565b9050919050565b600061050d82610514565b9050919050565b600061051f826104c6565b9050919050565b7f4f776e6c79204f776e6572000000000000000000000000000000000000000000600082015250565b610558816104e6565b811461056357600080fd5b5056fea26469706673582212205d8d9ddd7bfb944ea2d8b5a69ae141bb665863a541c1fdf084bf8aec97d9db3464736f6c63430008040033",
  "immutableReferences": {},
  "source": "// SPDX-License-Identifier: MIT\npragma solidity 0.8.4;\n\ncontract FundingRound {\n       \n    address payable public owner;\n    address payable public receiver;\n    uint public price;\n    uint public remainingAmount;\n    \n    event Deposit(address sender, uint amount);\n    event Withdrawal(address receiver, uint amount);\n    \n    constructor(\n        address payable _owner,\n        address payable _receiver,\n        uint _price\n    ) payable {\n        owner = _owner;\n        receiver = _receiver;\n        price = _price;\n        remainingAmount = _price;\n        \n    }\n    \n    modifier onlyOwner() {\n        require(msg.sender == owner, \"Ownly Owner\");\n        _;\n    }\n    \n    function deposit() public payable {\n        \n    }\n\n    function depositAmount(uint256 amount) payable public {\n        emit Deposit(msg.sender, amount);\n        require(msg.value == amount);\n     }\n    \n    function withdraw() payable public onlyOwner {\n        emit Withdrawal(owner, address(this).balance);\n        // require(remainingAmount == 0, \"Funding Round not complete\");\n        owner.transfer(address(this).balance);\n    }\n\n    receive() external payable {\n        \n    }\n}",
  "sourcePath": "/Users/donalmongey/Projects/defi/first-solidity-project/contracts/FundingRound.sol",
  "compiler": {
    "name": "solc",
    "version": "0.8.4+commit.c7e474f2.Emscripten.clang"
  },
  "schemaVersion": "3.4.1",
  "updatedAt": "2021-06-03T06:45:37.427Z",
  "networkType": "ethereum",
  "devdoc": {
    "kind": "dev",
    "methods": {},
    "version": 1
  },
  "userdoc": {
    "kind": "user",
    "methods": {},
    "version": 1
  }
}